:1000000022EF01F00000000000EF00F0000000000F
:0A0010000000000000000000F3D71C
:10001C000F0E0C6E470E0D6E0D2EFED70C2EFCD750
:06002C00000000001200BC
:06003200000000001200B6
:0A003800210E0D6E0D2EFED71200F2
:1000420028BE02D0839E01D0838E28BC02D0839C1E
:1000520001D0838C28BA02D0839A01D0838A28B82F
:1000620002D0839801D0838821B002D0848001D04D
:1000720084908484DDDF849428B602D0839E01D0EC
:10008200838E28B402D0839C01D0838C28B202D004
:10009200839A01D0838A28B002D0839801D08388C2
:1000A20021B002D0848001D084908484C1DF849402
:0C00B20021A002D0B2DF01D0BEDF12009E
:0C00BE00219027C028F0BEDF2180120036
:1000CA00969496909598959A959C959E84948490EA
:1000DA00839E839C839A83989CDF9BDF9ADF838A23
:1000EA0083888484A1DF849494DF84849DDF84944C
:1000FA0090DF848499DF84948CDF8398848494DFEE
:10010A00849487DF848490DF8494839A838E8484A2
:10011A008BDF84947EDF839E8388848485DF849446
:10012A008398848481DF849474DF84847DDF84945B
:10013A008388848479DF84946CDF8398848474DF71
:10014A008494838E838C838A838884846DDF8494E9
:06015A0060DF21801200AD
:100160000900F5CFE6FF0006FBE10106F9E1120008
:100170000FD0800E226E19D0C00E226E16D0940EB3
:10018000226E13D0D40E226E10D0800E226E0DD0AF
:100190002250010AEEE02250020AEEE02250030A49
:1001A000EEE02250040AEEE0F0D72304006E225065
:1001B000002600C022F0218000C028F042DF2190FC
:0A01C00024C028F03EDF2180120069
:1001CA000FD0800E226E19D0C00E226E16D0940E59
:1001DA00226E13D0D40E226E10D0800E226E0DD055
:1001EA002250010AEEE02250020AEEE02250030AEF
:1001FA00EEE02250040AEEE0F0D72304006E22500B
:10020A00002600C022F000C028F016DF2190266ADE
:10021A0026502424E96E000E2520EA6EEE520BE0E9
:10022A0026502424E96E000E2520EA6EEECF27F030
:0A023A0041DF262AEDD721801200D3
:10024400450E156E780E166E650E176E720E186ECC
:10025400630E196E690E1A6E630E1B6E690E1C6EA8
:100264006F0E1D6E200E1E6E330E1F6E206AFF0E63
:10027400C16E010E936E956A946A966A8492836A3B
:1002840022DF010E286EDBDE0C0E286ED8DE010E96
:10029400226E010E236E150E246E000E256E93DF62
:1002A40081A02DD08280020E226E010E236E300EAC
:1002B400246E5CDF0B0E0B6E260E0C6E5D0E0D6E47
:1002C4000D2EFED70C2EFCD70B2EFAD70000000003
:1002D4008290020E226E010E236E310E246E46DFD2
:1002E4000B0E0B6E260E0C6E5D0E0D6E0D2EFED7D4
:1002F4000C2EFCD70B2EFAD70000000008D0828009
:10030400020E226E010E236E300E246E2FDFBFD735
:02031400FFD711
:020000040030CA
:0D000100021F1EFF8181FF0FC00FE00F40A6
:00000001FF
