:10000000F5EF00F00000000000EF00F0000000003D
:0A0010000000000000000000F3D71C
:10001C000F0E0C6E470E0D6E0D2EFED70C2EFCD750
:06002C00000000001200BC
:06003200000000001200B6
:0A003800210E0D6E0D2EFED71200F2
:1000420057BE02D0839E01D0838E57BC02D0839CC0
:1000520001D0838C57BA02D0839A01D0838A57B8D1
:1000620002D0839801D083884EB002D0848001D020
:1000720084908484DDDF849457B602D0839E01D0BD
:10008200838E57B402D0839C01D0838C57B202D0A6
:10009200839A01D0838A57B002D0839801D0838893
:1000A2004EB002D0848001D084908484C1DF8494D5
:0C00B2004EA002D0B2DF01D0BEDF120071
:0C00BE004E9056C057F0BEDF4E8012007E
:1000CA000900F5CFE6FF0006FBE10106F9E112009F
:1000DA00969496909598959A959C959E84948490DA
:1000EA00839E839C839A839894DF93DF92DF838A2B
:1000FA008388848499DF84948CDF848495DF849454
:10010A0088DF848491DF849484DF839884848CDFFD
:10011A0084947FDF848488DF8494839A838E8484A2
:10012A0083DF849476DF839E838884847DDF84944E
:10013A008398848479DF84946CDF848475DF849463
:10014A008388848471DF849464DF839884846CDF79
:10015A008494838E838C838A8388848465DF8494E1
:06016A0058DF4E80120078
:100170000FD0800E516E19D0C00E516E16D0940E55
:10018000516E13D0D40E516E10D0800E516E0DD022
:100190005150010AEEE05150020AEEE05150030ABC
:1001A000EEE05150040AEEE0F0D75204006E5150D8
:1001B000002600C051F000C057F043DF4E90556A52
:1001C00055505324E96E000E5420EA6EEE520BE0B7
:1001D00055505324E96E000E5420EA6EEECF56F0CF
:0A01E0006EDF552AEDD74E801200A5
:1001EA0034EC01F00F0EC16E966A956A8492836AA6
:1001FA006FDF010E576E20DF0C0E576E1DDF010EEA
:10020A00516E010E526E1D0E536E000E546EABDF10
:10021A00020E516E010E526E2F0E536E000E546E68
:06022A00A2DFEDD7FFD7B3
:1002680010EE15F0370E006E010E016E300EF66EB0
:0E027800020EF76E000EF86E65EC00F012003C
:080230004D0050004F004C008E
:0A02380054657374650000000000B7
:080242004C004D0050004F007C
:0D024A0050726F6772616D61204C4344007B
:0802570050004F004C004D0067
:08025F004F004C004D0050005F
:020000040030CA
:0D000100021F1EFF8181FF0FC00FE00F40A6
:00000001FF
