:1000000001EF01F00000000000EF00F00000000030
:0A0010000000000000000000F3D71C
:06001C00000000001200CC
:100022000F0E0C6E470E0D6E0D2EFED70C2EFCD74A
:06003200000000001200B6
:0A003800210E0D6E0D2EFED71200F2
:1000420050BE02D0839E01D0838E50BC02D0839CCE
:1000520001D0838C50BA02D0839A01D0838A50B8DF
:1000620002D0839801D0838849B002D0848001D025
:1000720084908484D2DF849450B602D0839E01D0CF
:10008200838E50B402D0839C01D0838C50B202D0B4
:10009200839A01D0838A50B002D0839801D083889A
:1000A20049B002D0848001D084908484B6DF8494E5
:0C00B20049A002D0B5DF01D0BEDF120073
:0C00BE0049904FC050F0BEDF4980120096
:1000CA00030E936E946A966A956AFF0EC16E8492C5
:0800DA00836AFF0E826E120022
:1000E2000900F5CFE6FF0006FBE10106F9E1120087
:1000F2000FD0800E4A6E19D0C00E4A6E16D0940EE2
:100102004A6E13D0D40E4A6E10D0800E4A6E0DD0B5
:100112004A50010AEEE04A50020AEEE04A50030A4F
:10012200EEE04A50040AEEE0F0D74B04006E4A506B
:10013200002600C04AF000C050F082DF49904E6AAB
:100142004E504C24E96E000E4D20EA6EEE520BE04A
:100152004E504C24E96E000E4D20EA6EEECF4FF069
:0A016200ADDF4E2AEDD749801200F0
:10016C00969496909598959A959C959E8494849047
:10017C00839E839C839A83984EDF4DDF4CDF838A6A
:10018C008388848445DF849446DF848441DF8494AF
:10019C0042DF84843DDF84943EDF8398848438DF9F
:1001AC00849439DF848434DF8494839A838E8484AA
:1001BC002FDF849430DF839E8388848429DF8494AA
:1001CC008398848425DF849426DF848421DF8494BF
:1001DC00838884841DDF84941EDF8398848418DFD5
:1001EC008494838E838C838A8388848411DF8494A3
:0601FC0012DF4980120031
:1002020093EC01F061DFB1DF010E506E19DF0C0ECD
:10021200506E16DF010E4A6E010E4B6E2E0E4C6EA4
:10022200000E4D6E65DF81B017D081B215D082808D
:100232008282020E4A6E010E4B6E3F0E4C6E000E13
:100242004D6E56DF020E4A6E070E4B6E3A0E4C6E24
:10025200000E4D6E4DDF4AD081B017D081A215D06D
:1002620082908292020E4A6E010E4B6E290E4C6EE5
:10027200000E4D6E3DDF020E4A6E070E4B6E1A0ED9
:100282004C6E000E4D6E34DF31D081A017D081B29A
:1002920015D082808292020E4A6E010E4B6E150EAE
:1002A2004C6E000E4D6E24DF020E4A6E070E4B6E30
:1002B200240E4C6E000E4D6E1BDF18D081A016D09E
:1002C20081A214D082908282020E4A6E010E4B6E7F
:1002D2001F0E4C6E000E4D6E0BDF020E4A6E070EA5
:1002E2004B6E440E4C6E000E4D6E02DF93D7FFD75D
:1003260010EE15F0340E006E010E016EF20EF66E32
:0E033600020EF76E000EF86E71EC00F0120071
:0502F20044313D300025
:0502F70044323D31001E
:0502FC0044313D31001A
:0503010044323D310013
:0503060044313D31000F
:0C030B0045786572636963696F203100FA
:0503170044323D3000FE
:05031C0044313D3000FA
:0503210044323D3000F4
:020000040030CA
:0D000100021F1EFF8181FF0FC00FE00F40A6
:00000001FF
