:100000002EEF01F00000000000EF00F00000000003
:0A0010000000000000000000F3D71C
:10001C000F0E0C6E470E0D6E0D2EFED70C2EFCD750
:06002C00000000001200BC
:06003200000000001200B6
:0A003800210E0D6E0D2EFED71200F2
:100042002BBE02D0839E01D0838E2BBC02D0839C18
:1000520001D0838C2BBA02D0839A01D0838A2BB829
:1000620002D0839801D0838822B002D0848001D04C
:1000720084908484DDDF84942BB602D0839E01D0E9
:10008200838E2BB402D0839C01D0838C2BB202D0FE
:10009200839A01D0838A2BB002D0839801D08388BF
:1000A20022B002D0848001D084908484C1DF849401
:0C00B20022A002D0B2DF01D0BEDF12009D
:0C00BE0022902AC02BF0BEDF228012002E
:1000CA000FD0800E256E19D0C00E256E16D0940E54
:1000DA00256E13D0D40E256E10D0800E256E0DD04D
:1000EA002550010AEEE02550020AEEE02550030AE7
:1000FA00EEE02550040AEEE0F0D72604006E255003
:10010A00002600C025F0228000C02BF095DF229047
:0A011A0027C02BF091DF22801200B5
:10012400FF0EC16E030E936E966A956A946AFF0E73
:08013400826E8492836A1200BE
:10013C000900F5CFE6FF0006FBE10106F9E112002C
:10014C000FD0800E256E19D0C00E256E16D0940ED1
:10015C00256E13D0D40E256E10D0800E256E0DD0CA
:10016C002550010AEEE02550020AEEE02550030A64
:10017C00EEE02550040AEEE0F0D72604006E255080
:10018C00002600C025F000C02BF055DF2290296A14
:10019C0029502724E96E000E2820EA6EEE520BE05F
:1001AC0029502724E96E000E2820EA6EEECF2AF0A3
:0A01BC0080DF292AEDD7228012000F
:1001C600969496909598959A959C959E84948490ED
:1001D600839E839C839A83981EDF1DDF1CDF838AA0
:1001E6008388848423DF849416DF84841FDF8494C9
:1001F60012DF84841BDF84940EDF8398848416DFE9
:10020600849409DF848412DF8494839A838E8484A1
:100216000DDF849400DF839E8388848407DF8494C3
:100226008398848403DF8494F6DE8484FFDE8494DA
:1002360083888484FBDE8494EEDE83988484F6DEF1
:100246008494838E838C838A83888484EFDE84946B
:06025600E2DE228012002E
:10025C00450E156E780E166E650E176E720E186EB4
:10026C00630E196E690E1A6E630E1B6E690E1C6E90
:10027C006F0E1D6E200E1E6E320E1F6E206A4CDF2E
:10028C009CDF010E2B6ED7DE0C0E2B6ED4DE010E16
:10029C00256E010E266E150E276E000E286E50DF91
:1002AC00020E256E010E266E24C027F008DF020E0A
:1002BC00256E040E266E23C027F001DF020E256E7C
:1002CC00070E266E21C027F0FADE81B00CD081B269
:1002DC000AD0828082828284300E246E300E236E8D
:1002EC00300E216E29D081B00CD081A20AD0829020
:1002FC0082828294310E246E300E236E310E216E6A
:10030C001BD081A00CD081B20AD0828082928284D0
:10031C00300E246E310E236E300E216E0DD081A066
:10032C000BD081A209D0829082928294310E246EDD
:0C033C00310E236E310E216EAAD7FFD7C0
:020000040030CA
:0D000100021F1EFF8181FF0FC00FE00F40A6
:00000001FF
